:020000020000FC
:2000000000440034084060140800683A000000000000000000000000000000000000000002
:20000800DEFFED04DFC00015D8400215D8800315D8C00415D9000515D9400615D98007156A
:20001000D9C00815000B307ADA000915DA400A15DA800B15DAC00C15DB000D15DB400E15C4
:20001800DB800F15DBC01015D9401115EBFFFF04DBC012150009313A2880004C10000326FA
:200020002000022600000FC000000706DF401215E8BFFF17E93FFF04000015C01000021E69
:20002800EBFFFF04DBC01215D9401117DF401217DFC000172801707AD8400217D880031714
:20003000D8C00417D9000517D9400617D9800717D9C00817DA000917DA400A17DA800B17F2
:20003800DAC00C17DB000D17DB400E17DB800F17DBC01017DEC01304EF80083ADEFFFE0424
:20004000DFC00115DC0000150009313A04040034841C29040005883A00C0004420CA703A1E
:2000480028000B26100490FA8085883A10C0001711000117183EE83A0009313A203FF51E6C
:20005000DFC00117DC000017DEC00204F800283A18C7883A10800044003FF006D0A4DD17D6
:2000580010000426200B883A000D883A013FFFC41000683A003DA03A0005883AF800283AA5
:2000600006C400B4DEC0001406840034D6B72D1400840034109C011400C4003418DC6914E2
:2000680010C00326100000151080010410FFFD360001E9800001F780003FFF06009C03F4CA
:20007000108090041080003700DC03F410803FCC18C0A00418800035F800283A009C03F4E1
:20007800DEFFFD0410809004DFC00215DC400115DC00001514400037010400348C003FCC32
:20008000800B883A210D2E04000139C0800FD13A800DD0BA010400348940004C39C0004C75
:200088003180004C210D3304000139C0800FD17A800DD0FA800BD07A0104003439C0004C78
:200090003180004C2940004C210D3C04000139C0DFC00217DC400117DC000017DEC00304B2
:2000980000001BC101040034DEFFFF0401500004210D4504DFC000150001FD80D0A00115CF
:2000A0001000070E0144003401040034294D4504210D4904DFC00017DEC00104000139C1DB
:2000A800DFC00017DEC00104F800283A0144003401040034DEFFFF04294D4F04210D5104A7
:2000B000DFC00015000139C00100028400013F000000264001040034210D5804000148C089
:2000B80001C4003439DC23040184003431817904014002843809883A0001E18010000626A3
:2000C00001040034100B883A210D5B04DFC00017DEC00104000139C1DFC00017DEC00104D0
:2000C800F800283ADEFFFD04DC000115DFC002152021883AD1200117D80000052000091610
:2000D00001800044D80B883A000218C00080020ED8800003000004068009883A00023AC090
:2000D800003FF4060005883ADFC00217DC000117DEC00304F800283ADEFFFE04009C03F4EB
:2000E00000D494F4DFC00115DC0000151080980418D50C0410C0003504040034841C1704D9
:2000E80080C0011700800F04D0A0001518800035000061008009883A000B883A00006400DE
:2000F00001040034000B883A211C0B0400006400DFC00117DC000017DEC0020400001BC110
:2000F800DEFFFD04009C03F400D494F4DFC00215DC400115DC0000151080980418D50C44D9
:2001000010C00035044400348C5C170488C0011700800F04D0A000151880003500006100B5
:2001080004000044800B883A8809883A0000640001040034800B883A211C0B040000640055
:20011000DFC00217DC400117DC000017DEC0030400001BC1DEFFF704DC0003152821883A98
:20011800DCC00615014000C42027883A8009883ADFC00815DD000715DC800515DC40041557
:2001200000009E808009883A014000841023883A00009E808009883A014001041025883AF6
:2001280000009E808009883A014001441029883A00009E808100021720C000378200031762
:2001300018C03FCC1A07D83A18C0004C2100003721403FCC410000842909D83A8C403FCCD1
:200138008822923A2100004CD900021591803FCC10803FCC01040034D8C00115D8800015C9
:20014000A1C03FCC898CB03A980B883A210D7F04000139C0DFC00817DD000717DCC00617B2
:20014800DC800517DC400417DC000317DEC00904F800283ADEFFFE04DC000015009094B445
:20015000041C03F4DFC001158400980410950C0480800035000037800109C40400023AC034
:2001580000003E00010000B42121A80400023AC0009094B410950C8480800035010400342F
:20016000000B883A211C0B040000C48000001BC0009094B41095CC4480800035010013343D
:200168002112D00400023AC0009094B410950C448080003501040034000B883A211C170414
:200170000000C48000001BC00093D2F41090564480800035DFC00117DC000017DEC002043A
:20017800F800283A009C03F41080850400C03FC410C00035D0A4D81710C4703A00DC03F4E5
:2001800018C084041880003500800284F800283ADEFFFF04D800001500C001C4D880001711
:20018800188005160001883AD880001710800044D8800015003FF906DEC00104F800283AF6
:2001900020C0031729403FCC00800044D1A0001718C001042800032610C6983A30C4B03AE1
:200198000000030610C4983A0084303A3084703AD0A00015D0E000172080011710C0003543
:2001A00000006101D0E0001700BFFF441884703A20C0011710800314D0A0001518800035DD
:2001A80000006101DEFFFE04DC000015DFC001152021883A000068408080031700FFFF8409
:2001B000108000841886183AD0A000171884703A80C00117D0A0001518800035DFC00117FD
:2001B800DC000017DEC0020400006101DEFFF704DDC00715DD800615DD400515DD000415F8
:2001C000DCC00315DC800215DC400115DFC00815DC0000152027883A050001C40025883A5F
:2001C8002D803FCC05FFFF84047FFF44057FFFC4B507D83AD0A0001718C0004C1800022612
:2001D000108000540000010615C4703AD0A00015D0A0001798C001171444703AD0A000159E
:2001D8001880003500006100D0A0001798C0011710800094D0A0001518800035000061000B
:2001E000988002171400003780803FCC9C00031790C03FCC18C7883A840001041421D83AF6
:2001E800D0A000178400004C80E0B03A98C001171444703A8025883AD0A00015188000352B
:2001F000A53FFFC400006100A57FD91E8005883ADFC00817DDC00717DD800617DD40051759
:2001F800DD000417DCC00317DC800217DC400117DC000017DEC00904F800283ADEFFFC04BB
:20020000DFC00315DC400215DC0001152823883A2021883A00006A408009883A000B883A30
:2002080000006EC089403FCC8009883A00006EC08009883A0140200400006EC0000B883AB0
:200210008009883A00006EC08009883AD880001500006840D8800017DFC00317DC40021798
:20021800DC000117DEC00404F800283ADEFFFC04DFC00315DC800215DC4001152825883A8A
:200220003023883ADC0000152021883A00006A408009883A000B883A00006EC091403FCCE9
:200228008009883A00006EC08009883A0140100400006EC08009883A89403FCC00006EC022
:200230008009883ADFC00317DC800217DC400117DC000017DEC0040400006841DEFFFB04E3
:20023800DCC00315DC800215DC400115DC000015DFC004152023883A2825883A0021883AAD
:2002400004C003C48480090E01403F848809883A00007FC010803FCC14C009260100FA04C5
:2002480000023AC084000044003FF60601040034210D6404000148C000BFFFC40000010636
:200250000005883ADFC00417DCC00317DC800217DC400117DC000017DEC00504F800283ABA
:20025800DEFFFD04DC4001152823883A01400204DFC00215DC0000152021883A00008DC02B
:20026000014000448009883A00007FC010803FCC8C403FCC14400D26808000170080040ECD
:2002680001040034880B883A210D6F04000139C0014000448009883A880D883A000086C0E0
:20027000014002048009883A00008DC0014000448009883ADFC00217DC400117DC000017E0
:20027800DEC0030400007FC1DEFFFC04DC4001152C7FFFCCDC0000152821883A880AD23A62
:20028000DFC00315DC8002152025883A0000960081403FCC9009883A00007FC01021883A3E
:20028800908000170080050E0104003481803FCC880B883A210D7704000139C08005883A18
:20029000DFC00317DC800217DC400117DC000017DEC00404F800283A20800017DEFFFB0466
:20029800DCC00315DC800215DC400115DC000015DFC004152021883A2823883A34803FCC75
:2002A0002CFFFFCC0080050E01040034900D883A980B883A210D8D04000139C0980AD23A51
:2002A8008009883A0000960089403FCC8009883A900D883A000086C0014002048009883AFF
:2002B000DFC00417DCC00317DC800217DC400117DC000017DEC0050400008DC1DEFFFD044F
:2002B800014121C4DFC00215DC400115DC0000152023883A00009E8001414A848809883AA0
:2002C0001021883A00009E8080C0004C180002268004D07A000001061004D07A108000CCB2
:2002C800DFC00217DC400117DC000017DEC00304F800283ADEFFFB04DC0001152021883A67
:2002D00001040034210D9604DFC00415DC800315DC400215000148C08009883A0140030412
:2002D80000009E800104003411403FCC210D9804000139C0014003448009883A00009E809E
:2002E0008009883A1023883A0000ADC0014004848009883A8C403FCC88A3D83A00009E800B
:2002E8008009883A1025883A94803FCC0000ADC09085D83A880CD13A010400341006D13A08
:2002F00011C0004C3180004C18C0004CD8C000158940004C210D9D04000139C08009883ADA
:2002F8000140038400009E808009883A014004C41023883A00009E8010803FCC89403FCC2A
:20030000100ED07A1004D17A280CD17A280AD07A1080004C01040034D880001539C0004C54
:200308003180004C2940004C210DA604000139C0DFC00417DC800317DC400217DC000117F8
:20031000DEC00504F800283ADEFFF604DCC00615DC800515DC400415DC000315DFC00915E2
:20031800DD400815DD0007152021883A2825883AD80002050023883A04C0020489409AC4CB
:200320008009883A00009E80DC47883A188000058C4000448CFFF91E9000041E8140041792
:20032800D809883A00014A001000262684400517850006170027883A8C800084057FFFD419
:200330009D00100E8940000B9100000B2D40061E0140FA04213FFFCC000131801009883AFA
:2003380000023AC00000030621803FCC8009883A0000A5809CC000448C40010494800104FA
:20034000003FEF0601040034210DAF04000148C004400204014003048009883A00009E804B
:2003480011403FCC2800072601040034210DB304000139C00100FA048C7FFFC400023AC003
:20035000883FF41EDFC00917DD400817DD000717DCC00617DC800517DC400417DC00031760
:20035800DEC00A04F800283ADEFFFB04014000C4DFC00415DC400115DC0000152023883ABE
:20036000DCC00315DC80021500009E801021883A84003FCC014000848809883A8020923A32
:2003680000009E8010803FCC808AB03A0094D14428800F2601040034210DBE04DFC004175F
:20037000DCC00317DC800217DC400117DC000017DEC00504000139C111402116008012441B
:2003780028805B1E014000448809883A0000C4808809883A0000B3400100028400013F001B
:2003800001040034210DC704000148C001040034210DC904000148C001040034210DCD04AD
:20038800000148C001040034210DD104000148C001040034210DD604000148C0010000B408
:200390002121A8040000324011403FCC2940201C297FE0040080148428BFDF1E0000050659
:2003980000801C4428803E2600801C8428800A26000037068809883A0140070400009E8067
:2003A0001080005411803FCC014007048809883A0000A580003FD60601040034210DDB0498
:2003A800000139C0010000B42121A80400003240143FF40480C03FCC0100024420C00C2E2F
:2003B00010FFE7C418C03FCC0100014420C00236143FEA440000060610FFEFC418C03FCC00
:2003B80020C00236143FF244000001060021883A84803FCC84003FCC8400201C9480201CEC
:2003C000843FE00494BFE0048020923A010400349024923A210DE004000148C084C0400477
:2003C800917FFFCC8809883A00009E8001040034800B883A11803FCC210DE40484000044C9
:2003D000000139C0948000449C3FF51E003FA80601040034210DEA04000139C0003FA406A8
:2003D800DFC00417DCC00317DC800217DC400117DC000017DEC00504F800283ADEFFFF0418
:2003E000DFC0001500002AC001040034210DF004000148C0009C03F41140003701040034A7
:2003E800210DF504000139C0015C03F40104003429408804210DFC04000139C0015C03F4D6
:2003F0000104003429409004210E0304000139C0019C03F4015C03F4010400343180A00411
:2003F80029409804210E0A04000139C00000534000001DC00144003401040034295C1704E7
:20040000210E1304000045400144003401040034295C0B04210E1404000045400100028478
:2004080000013F0001040034210E1504000148C001040034210E1E04000148C0010400343E
:20041000210E2504000148C001040034210E2D04000148C001040034210E3504000148C01F
:2004180001040034210E3D04000148C001040034210E4404000148C001040034210E4A04A3
:20042000000148C001040034210DD604000148C0010000B42121A8040000324011403FCCF8
:200428002940201C297FE00400800D8428802A2611400F1600800C842880152600800D4440
:200430002880222600800C4428802A1E0104003401400044211C17040000C4800144003429
:2004380001040034295C1704210E13040000100600801C842880102600801CC428801B2628
:200440000080188428801B1E00005340003FC3060104003401400044211C0B040000C480B6
:200448000144003401040034295C0B04210E14040000454000000B06000037800109C404E8
:2004500000023AC000003E000000080601040034211C17040000020601040034211C0B0426
:200458000000D68000001BC0003FAC0600001DC0003FAA0601040034210DEA04000139C047
:20046000003FA606DEFFF104DC00051502DC03F404040034029C03F40244003400840034F1
:20046800841C1704DFC00E15DF000D15DDC00C15DD800B15DD400A15DD000915DCC00815CB
:20047000DC800715DC4006155AC08804528090044A4E5004020083C401C0050410906104AD
:2004780082C00115828002158240041582000615800000158000031580800515380D883A2D
:2004800081000704000B883AD9C00415DA000315DA400215DA800115DAC0001500013400DA
:2004880000C042040700434405C04484058045C4054048440500498404C04AC404804C045C
:2004900004404E8480C0070D8700078D85C0080D8580088D8540090D8500098D84C00A0D82
:2004980084800A8D84400B0D04040034841C0B04DAC00017DA800117DA400217DA00031798
:2004A000D9C00417008000448080031500840034108E52048000001582C0011582800215FA
:2004A800824004158080051582000615380D883A000B883A81000704D8C000150001340060
:2004B000D8C000178700078D85C0080D80C0070D8580088D8540090D8500098D84C00A0DC9
:2004B80084800A8D84400B0DDFC00E17DF000D17DDC00C17DD800B17DD400A17DD0009176C
:2004C000DCC00817DC800717DC400617DC000517DEC00F04F800283A0005883A2000072697
:2004C80020C0004C2008D07A180001261145883A294B883A203FFA1EF800283AF800283ABE
:2004D0002005883A2007883A218D883A198003261940000518C00044003FFC06F800283AF5
:2004D800DEFFFD04DFC00015D9800115D9C0021520C00217018400343186AA04198001158D
:2004E000280D883A21400217D9C0010400015600DFC00017DEC00304F800283ADEFFFC0404
:2004E800DFC00015D9400115D9800215D9C00315008400341097300410800017014400343D
:2004F0002946AA0410C00217D980010419400115200B883A110002170001A8C0DFC00017E3
:2004F800DEC00404F800283A218002170001BB41008400341097300410800017200B883A06
:20050000118002171009883A0001BB41DEFFFD04DC0000152021883A2809883ADFC00215DE
:20050800DC4001152823883A00014D8081400217010400342106AA0429000115100F883ABE
:20051000880D883A8009883A0001AA8000FFFFC410C00926814002170184003401C00044A5
:2005180028800117318D57048009883A103EE83A10BFFFE00085C83ADFC00217DC4001170E
:20052000DC000017DEC00304F800283A0084003410973004200B883A11000017000140C11F
:200528002080000310C03FCC18C0201C18FFE00418000526298000071980031E2100004414
:2005300029400044003FF60628C0000310803FCC10C5C83AF800283A2005883A10C000074E
:200538001800022610800044003FFC061105C83AF800283ADEFFFB04DC800315DC40021559
:20054000DC000115DFC004152025883A2823883AD98000053821883A04000A0E8880011728
:2005480001C00044D80D883A880B883A9009883A103EE83A843FFFC4103FF72600BFFFC453
:20055000000001060005883ADFC00417DC800317DC400217DC000117DEC00504F800283A63
:20055800DEFFE504D8C00804DDC01815DD801715DD401615DD001515DCC01415DC8013152E
:20056000DC401215DC001115DFC01A15DF0019152029883A2823883A382D883AD9800F159F
:200568000021883AD8000E15D8000A15002B883A0027883A0025883AD8000C15D8000B15F0
:20057000002F883AD8C00915D8C00F171900000320803FCC1080201C10BFE00410011E266B
:2005780000C00044B8C014261DC00216B80006260001150601400084B9401D26014000C4B2
:20058000B9402B2600011006014009441140FC2688800117D900000501C00044D80D883A4F
:20058800880B883AA009883A103EE83A1000D81E840000440001040601400C041140FA2688
:200590000140094411400A1ED880000588800117B80F883AD80D883A880B883AA009883AD7
:20059800103EE83A1000CA1E840000440000F50625FFF404BDC03FCC00C002441DC0093652
:2005A00000BFFFC490800426014002849009883A00013180000001060005883AB8A5883ABE
:2005A8000000E20601400B841140E42605C00084213FF40427003FCC00C002441F000936E9
:2005B00000BFFFC498800426014002849809883A00013180000001060005883AE0A7883A74
:2005B8000000D90600C01B0410C0D226013FFFC499000226D8000B150000010604C00044D2
:2005C00001001A441100162620800916010018C41100882601001904110011260100160493
:2005C8001100C81E00C00044D8C00E150000150601001CC4110098262080041601001BC4F8
:2005D0001100C01E0540020400000F0601001D4411000D2601001E0411000A260000B906F3
:2005D800D8C00A17B700010418000726DF000D15B5C00017B800080E05EFC83A0240004472
:2005E0000000060605400404B0C00104D8C00D15B5C00017D8000A150013883AD839883A48
:2005E800B8001726A80B883AB809883ADA4010150001D5C0A80B883A1009883A102D883AE2
:2005F00000013180B885C83A00C00244DA4010171880021610800C0400000506D8C00E179B
:2005F8001800022610800DC400000106108015C4E0800005B02F883AE7000044003FE80674
:20060000E6EFC83A9DC5C83A0080090EE085883A01400C04D8C00917E009883AE0C0032E5C
:20060800E700004421400005E0BFFA1EE6EFC83AD8C00B174DD1883A922DC83A1800162604
:2006100048000A2600800B44D88008058880011701C00044D9800804880B883AA009883AD4
:20061800103EE83A10004A1E840000440580070EB00F883A01800C04880B883AA009883AA6
:2006200000014F401000421E85A1883AE02D883ABF2FC83A000020060580090EB00F883AD0
:2006280001800804880B883AA009883ADA40101500014F40DA4010171000351E85A1883A0A
:20063000483FF22600800B44D88008058880011701C00044D9800804880B883AA009883A8D
:20063800103EE83A10002A1E84000044003FE706B5BFFFC4B080000301C00044D980080412
:20064000D880080588800117880B883AA009883A103EE83A10001E1E8585C83AB5C9883A4D
:20064800E085883A013FF2161021883ADD800D1700004406008000441480080E95FFFFC4A0
:20065000B80F883A01800804880B883AA009883A00014F4010000E1E85E1883AB080001779
:2006580001C00044D80D883AD880000588800117880B883AA009883AB5C00104103EE83AAF
:200660001000031E84000044B82D883A00002D0600BFFFC400003106B5C00017B7000104A6
:20066800B809883A00014D809091C83A102D883A0200090E400F883A01800804880B883AF3
:20067000A009883ADA00101500014F40DA001017103FEF1E8221883A88800117B00F883A0D
:20067800B80D883A880B883AA009883A103EE83A103FE71E85A1883AE02D883A0000110689
:2006800000C0004404FFFFC4D8000E15D8C00A15054002849825883AD8000C15D8000B15A3
:20068800182F883A00000806DDC00B1505C000840000050600C00044D8C00C1505C000C4E4
:2006900000000106002F883AD8C00F1718C00044D8C00F15003EDC068005883ADFC01A1785
:20069800DF001917DDC01817DD801717DD401617DD001517DCC01417DC801317DC401217F7
:2006A000DC001117DEC01B04F800283A0084003410973004300F883A280D883A200B883AA7
:2006A80011000017000156012880000B1080020C100021262880008FDEFFFA04DC00001507
:2006B000DFC00515DD000415DCC00315DC800215DC4001152821883A100012162027883AD6
:2006B8003025883A3823883A0501000404400B0E880F883AA440010E01C100048140008F25
:2006C000900D883A9809883A0001C0C00080050E88A3C83A90A5883A003FF4060005883A20
:2006C800000007068080000B108010148080000D00BFFFC40000020600BFFFC4F800283AD3
:2006D000DFC00517DD000417DCC00317DC800217DC400117DC000017DEC00604F800283A03
:2006D800DEFFFD0400840034DC000115DFC002151086AA042880011500840034109730042F
:2006E000D90000052021883A1100001701C00044D80D883A0001AA8000FFFFC410C0012661
:2006E8008005883ADFC00217DC000117DEC00304F800283ADEFFFD0400840034DC00011578
:2006F000DFC002151086AA04308001150084003410973004110000172821883A01C000445F
:2006F800300B883AD80D883ADC0000050001AA8000FFFFC410C001268005883ADFC002177A
:20070000DC000117DEC00304F800283ADEFFFD04DC00001504040034DC400115841C010404
:200708002023883A2809883A300B883A380D883ADFC002158000001500023C4000FFFFC44A
:2007100010C0031E80C000171800012688C00015DFC00217DC400117DC000017DEC0030461
:20071800F800283A20001B16000F883A28001616200D883A29001A2E0080080400C0004401
:200720000000010610000D26294B883A10BFFFC418C7883A293FFB360005883A1800072661
:200728000005883A31400236314DC83A10C4B03A1806D07A280AD07A183FFA1E3800012651
:200730000085C83AF800283A014BC83A39C0005C003FE7060109C83A01C00044003FE306C0
:2007380000C00044003FEE0620001716000F883A2005883A280012162900162E018008041B
:2007400000C000440000010630000A26294B883A31BFFFC418C7883A293FFB3618000526C8
:200748001806D07A114001361145C83A280AD07A183FFB1E380001260085C83AF800283A1D
:20075000014BC83A003FEC060109C83A01C00044003FE70600C00044003FF106200D883AA4
:200758002900152E280014160080080400C000440000020610000E2628000516294B883A6E
:2007600010BFFFC418C7883A293FFA36180008260005883A31400236314DC83A10C4B03ABA
:200768001806D07A280AD07A183FFA1EF800283A0005883AF800283A00C00044003FF40666
:200770002005883A2900122E280011160180080400C000440000020630000C26280005168C
:20077800294B883A31BFFFC418C7883A293FFA36180006261806D07A114001361145C83AB3
:20078000280AD07A183FFB1EF800283AF800283A00C00044003FF706D0A4D91710001A26C5
:2007880020001B262180031521C005150007303A00BFFF841884703A1001703AD0A4D81725
:2007900011800044314B883A214002152880032E0080004420800405000001062000040548
:20079800D0A0040420800115D0A0041720800015D0A00417D1200415110001151801703A54
:2007A0000005883AF800283A00BFDE84F800283A00BFFA84F800283ADEFFFF0401040034ED
:2007A80001440034DFC000152112730429573A042140061E01040034014400342100080438
:2007B000294008042140121E00000B0600C4003418D73A041907C83A0005883A10FFF526DA
:2007B800114F883A39C00017110D883A1080010431C00015003FF906010400340144003484
:2007C000210D2E04294D2E042140101E00000B0600C4003418C060041907C83A0005883A54
:2007C80010FFF526114F883A39C00017110D883A1080010431C00015003FF9060002C180B9
:2007D000DFC00017DEC001040002EBC100C4003418D273041907C83A0005883A18BFF726CC
:2007D800114F883A39C00017110D883A1080010431C00015003FF906DEFFFE040009883A6C
:2007E000DFC00115DC0000150002498000024B8001840034318D4504300B883A3009883A03
:2007E800000303C00002C90001040034210B3604000312C0D1A4D517D164D617D124D71786
:2007F0000000F7C0010000441021883A0002B6808009883A00031400DEFFF504DD00051593
:2007F8002829883AD1600704DD400615DCC00415DFC00A15DF000915DDC00815DD800715B7
:20080000DC800315DC400215DC0001152027883A302B883A0002D2001000061E9809883AAE
:200808000002D9401023883A1000402604800044000002061023883A0025883A8809883A4B
:200810000002E3801021883A10003B16014003041009883A0584003400013180B596C3046B
:20081800B0AF883A0090003410BFFFC4A084703AB8C0020490000526188000158880031773
:200820001000171E8005883A00002F061090003418800015D0E00617B025883A0039883A17
:200828008009883A01400304D8C0001500013180B085883A9100001710800017D8C00017C9
:200830002080031E908002171000010E95C01C1EE7000044948003041F3FF12E003FE70621
:20083800A80F883AA00D883A980B883AB809883A103EE83A1023883A8005883A8800120E7C
:200840008009883A00022640D0A00B1710000226103EE83A00000106D0A4D4040463C83AEF
:200848001440001500BFFFC400000706047FFB44043FFFC4003FF2061023883A003FF0066F
:20085000047FFCC4003FEE06DFC00A17DF000917DDC00817DD800717DD400617DD000517E9
:20085800DCC00417DC800317DC400217DC000117DEC00B04F800283AD0A00B17100001265A
:200860001000683AD0A4D404F800283ADEFFFA04DFC00515DD000415DCC00315DC8002156F
:20086800DC400115DC000015200021162827883A04040034014003042025883A3029883A3F
:200870008416C3040001318080A3883A880018268880021700C00044108000CC10C0112622
:20087800014003049009883A000131808085883A108000171080051710000A26A00D883A42
:20088000980B883A8809883A103EE83A1021883A10000B0E000217800421C83A140000152B
:20088800000006060002178000C00344000002060002178000C0144410C00015043FFFC400
:200890008005883ADFC00517DD000417DCC00317DC800217DC400117DC000017DEC0060454
:20089800F800283A00C000841900140EDEFFFD04DC0000150140030404040034DFC002155E
:2008A000DC4001158416C3042023883A000131808085883A014003048809883A1000021565
:2008A800000131808085883A10000015DFC00217DC400117DC000017DEC00304F800283AB4
:2008B0000007303A00BFFF841884703A1001703A2140011720800017114001152140011764
:2008B8002880001521000115210000151801703AF800283AD0A4D817DEFFFB04DC000015A9
:2008C000D420041710800044DC800215DC400115DFC00415DCC00315D0A4D815D460040487
:2008C8000480004484401A268080040384C0001710000326D0A4D8171000011E800004058E
:2008D000D0E4D8178080021718800F368080040310000D1E8080031781000517103EE83A06
:2008D8001000031E8009883A00022C000000060680C0021710C5883AD0E4D81780800215A0
:2008E00010C0012E848004059821883A003FE506DFC00417DCC00317DC800217DC4001172E
:2008E800DC000017DEC00504F800283A0002AE01D0A00B17100001261000683AD0A4D40484
:2008F000F800283ADEFFFA04DFC00515DD000415DCC00315DC800215DC400115DC000015BA
:2008F800200020162827883A04040034014003042025883A3029883A8416C30400013180C0
:2009000080A3883A8800172688800217108000CC10001126014003049009883A0001318014
:200908008085883A108000171080061710000A26A00D883A980B883A8809883A103EE83ADD
:200910001021883A10000B0E00023B000421C83A140000150000060600023B0000C00344CE
:200918000000020600023B0000C0144410C00015043FFFC48005883ADFC00517DD0004177D
:20092000DCC00317DC800217DC400117DC000017DEC00604F800283ADEFFFF04DFC00015CF
:2009280000030B00008000441001703ADFC00017DEC00104F800283A011C03F4DEFFFE047C
:2009300001C0FA04000D883A000B883A21004004DFC00115DC0000150002A980009C03F483
:2009380010805004040400348412B504D0A4DB150080BEF410BC20048009883A018000845A
:20094000000B883AD0A4DA1500026900D1600704813FF604DFC00117DC000017DEC00204B8
:200948000002C2412080001721C0021711000A0400027AC12080001721C0021711000A04AD
:2009500000028EC1208000172140021711000A04000270812100001721000A040002738196
:20095800208000171080010410C0003718C1000C1800052620C0081718C1001410C0003513
:2009600020000915000006062080091700E0003418FFFF04188002361080004420800915DD
:20096800D0A4D917F800283A21C00017027FFF84023FFF44398001043080003710C0C00CF0
:200970001800322610C0400C1800182600C0007421400A1722800B17294000442941FFCC29
:200978002A800B2638C000371960000C2800082621400A17214B883A28C00E0521400A174D
:20098000294000442941FFCC21400A15003FF00618FFFFEC1800052620C008171A46703A72
:2009880020C0081530C0003530C0003710C0800C183FE1261004D43A103FDF2621400D1751
:2009900020C00C1728C00A2620C00D1720C7883A18C20E0738C0003520C00D1710BFFFC4CD
:2009980018C0004418C1FFCC20C00D15003FF2062080081720C000171204703A2080081513
:2009A0001880013530800037003FCB06F800283ADEFFFD04DC0001152021883A80C00017EE
:2009A80000800044DFC002152809883A80800815300B883A1880013501840034800F883AD0
:2009B00031896A04D80000150002EC00D164D9170184003480000915800F883A3189580441
:2009B800810002040001E1801000030E00A0003410BFFFC480800115DFC00217DC000117ED
:2009C000DEC00304F800283A21800C172950000C20800D171180062620C009172080011796
:2009C8001880032E283FFA2600BFFD44F800283A0005883AF800283A009A80442880032615
:2009D000009A808428800E260000160620C0011700A0003410BFFFC418801226308000177C
:2009D80001600034297FFF0410FFFF8428C0022E00A0003410BFFF8420800115000007062C
:2009E00020C0011700A0003410BFFFC4188005262080091710C5803A308000150005883AFB
:2009E800F800283A00BFF9C4F800283ADEFFF504DF000915DDC00815DD800715DD000515C2
:2009F000DC800315DC4002153829883ADFC00A15DD400615DCC00415DC0001152023883A7B
:2009F800282D883A3025883A05C2000427000E0439D0000C04802C0EB007883A8D400A1773
:200A00008CC00B17ACC00236ACE1C83A00000106BCE1C83A80000E269400012E9021883AA5
:200A0800800D883A1809883AE4CB883AD9C00015000319001407883A9425C83A9C21883A4A
:200A10008401FFCC8C000B15D9C0001704BFEB161D80091E3800141E88800A17A880031EB6
:200A180088C009178880011718BFFB3688800A17A8BFE01E00000C060009303A00BFFF84D9
:200A20002084703A1001703A88800817894000171080005488800815288001352001703AF4
:200A28001D85C83A00000506A510000CA000022600BFFD440000010600BFFEC4DFC00A172E
:200A3000DF000917DDC00817DD800717DD400617DD000517DCC00417DC800317DC400217DB
:200A3800DC000117DEC00B04F800283ADEFFF304DF000B15DDC00A15DD800915DD4008155F
:200A4000DCC00615DC800515DC400415382F883ADFC00C15DD000715DC0003152025883A57
:200A4800282B883A3027883A2823883A002D883A073FFF8439D0000C22020E040241FFC44A
:200A500004C01D0E95000C1795800D17A580022EB0FFFFC400000206B000032600C2000438
:200A58001D21C83A000001064D21C83A800012269C00012E9821883A800D883A880B883A25
:200A60004509883A8C23883A9C27C83AA421883AD9C00015DA000115DA4002158401FFCC8A
:200A680000031900DA40021794000C15DA000117D9C00017003FE2060007303A1F04703A63
:200A70001001703A90800817910000171080009490800815208001351801703A04C0080E10
:200A78003800101E90C00D1790800917B0C0021E90C0011710FFFB36103FD12600000606CA
:200A80008D4002268D45C83A00000806BDD0000CB8000226000004068D7FFA1E00BFFEC457
:200A8800000002068D7FF71E00BFFD44DFC00C17DF000B17DDC00A17DD800917DD400817EB
:200A9000DD000717DCC00617DC800517DC400417DC000317DEC00D04F800283ADEFFFE0405
:200A9800DFC00115DC00001520000035208001370021303A00BFFF848084703A1001703A35
:200AA00000022F408001703ADFC00117DC000017DEC00204F800283AD0E4D917DEFFFE046F
:200AA800DFC001152005883A2809883A300B883A1800011ED1E4D91500C001C410C001353D
:200AB00001840034D8000015100F883A318A97040002EC00DFC00117DEC00204F800283AA6
:200AB800014666B4DEFFFE0429666644DC000015DFC001152021883A0001D5C01000102620
:200AC00001600034013999B40007883A297FFFC4211999C4297FFFC4283FFE1E18C0004425
:200AC8008121883A18BFFB16014001448009883A0001318010BFFFC4103FFE1E0000050637
:200AD000014001448009883A0001318010BFFFC400BFFE160005883ADFC00117DC000017AD
:200AD800DEC00204F800283ADEFFFD04DFC00215DC400115DC00001520001A1601400304B1
:200AE0002023883A00013180010400342116C3042089883A200013262080001710800417E2
:200AE80010000326103EE83A1021883A000001060021883A8809883A000226400005883AE6
:200AF0008000100ED0A00B1710000226103EE83A00000106D0A4D4040421C83A140000156B
:200AF80000000706D0A00B1710000226103EE83A00000106D0A4D40400C0144410C0001547
:200B000000BFFFC4DFC00217DC400117DC000017DEC00304F800283AF800283A3005883A24
:200B0800F800283A20000226208002171000101ED0A00B1710000926DEFFFF04DFC00015CF
:200B1000103EE83A00C0058410C0001500BFFA84DFC00017DEC00104F800283AD0A4D404EB
:200B180000C0058410C0001500BFFA84F800283A288000172140011520800015288000174E
:200B200011000115290000150005883AF800283ADEFFFD04DC400115DC00001504440034B2
:200B280004040034DFC00215840D2D048C4D2D048440043680800017843FFF04103EE83AA4
:200B3000003FFB06DFC00217DC400117DC000017DEC00304F800283ADEFFFD04DC40011577
:200B3800DC0000150444003404040034DFC00215840D2D048C4D2E0484400436808000175C
:200B4000843FFF04103EE83A003FFB06DFC00217DC400117DC000017DEC00304F800283A41
:200B4800DEFFFB04DCC00315DC800215DC400115DC000015DFC004152027883A2823883A99
:200B50002C00001700014D80148000448440072681000217900D883A980B883A0003160034
:200B58001000042684000017003FF8060005883A000001068005883ADFC00417DCC00317E6
:200B6000DC800217DC400117DC000017DEC00504F800283ADEFFFA04DC000015D4200917F8
:200B6800DD000415DCC00315DC800215DFC00515DC4001152025883AD520090404C00BC4C9
:200B700085001226844002178809883A00014D808887883A18FFFFC71CC0011E10BFFFC46F
:200B78009087883A18C000071CC001261800051E100D883A900B883A8809883A00031600BF
:200B80001000042684000017003FED060005883A000001068005883ADFC00517DD00041786
:200B8800DCC00317DC800217DC400117DC000017DEC00604F800283ADEFFFB04DCC0031569
:200B900004C40034DC800215DC400115DC000015DFC004152025883A0021883A9CD6C304D8
:200B980004400804014003048009883A000131809885883A10C000171800051E14800015FE
:200BA000D0A006171400050ED42006150000030684000044847FF31E043FFA048005883A05
:200BA800DFC00417DCC00317DC800217DC400117DC000017DEC00504F800283AF800283AC6
:200BB0000002F4C10009303A00BFFF842084703A1001703A00C00044D0A4DC17194A983A10
:200BB800288AB03AD164DC15D0A4DC17100170FA2001703A0005883AF800283A0009303A1A
:200BC00000BFFF842084703A1001703A00FFFF84D0A4DC17194A183A288A703AD164DC15AA
:200BC800D0A4DC17100170FA2001703A0005883AF800283A000730FA008000441144983A23
:200BD00010C4703A1004C03AF800283A00C007C419401616DEFFFE04DFC00115DC0000158A
:200BD8000021303A00FFFF8480C6703A1801703A280490FA00C4003418DC29041885883A0F
:200BE0001180001511C00115300002260002EC40000001060002EFC08001703ADFC0011748
:200BE800DC000017DEC00204F800283A00BFFA84F800283ADEFFFD04DC4001152023883A50
:200BF0002809883A300B883A01807FC4DFC00215DC0000150001FD8010001316014003048B
:200BF8001009883A1021883A0001318000C4003418D6C3041885883A10C000178009883A1F
:200C000088C0001510C001171080021788C0011588800215DFC00217DC400117DC0000178A
:200C0800DEC0030400022641DFC00217DC400117DC000017DEC00304F800283ADEFFFB0404
:200C1000DC000015040400348416C604DC40011504400044DCC00315DC8002152827883A41
:200C18003025883A200B883A880D883A8009883ADFC004150002FB40980B883A813FFD04FB
:200C2000000D883A0002FB40880D883A900B883A81000304DFC00417DCC00317DC80021787
:200C2800DC400117DC000017DEC005040002FB41000170FAF800283A213FFE84008003C4B2
:200C300011001636200890BA00840034108C37042089883A208000171000683A100031240D
:200C3800100031241000311C1000311C1000311C100031241000311C1000311C100031249C
:200C4000100031241000311C100031241000311C1000311C1000311C100031240005883A2A
:200C4800F800283A00800044F800283A200B883A000F883A000D883A0009883A00031B811D
:200C5000DEFFFE04000B883ADC000015DFC001152021883A000331008009883A00034A0063
:200C5800218D883A218008262080000328C0000310C0022610C5C83AF800283A2100004421
:200C600029400044003FF7060005883AF800283A2005883A2007883A218D883A1980052666
:200C68002900000318C0004429400044193FFFC5003FFA06F800283A0084003410972F0430
:200C700010C00017DEFFF904DC0000151C000C17DD400515DD000415DCC00315DC8002151F
:200C7800DC400115DFC00615202B883A2823883A3027883A3825883A1029883A8000021E83
:200C80001C000D041C000C158080011700C007C41880110E00800034108000041000021E18
:200C880000BFFFC40000310601002304000000001021883A103FFA2610000115A0800017AC
:200C900010C00C1780C0001514000C1580002215A8001D2600000606A8001B2680802217F7
:200C98001000091E0080003410800004103FEC260100420400000000103FE9261000401552
:200CA000100041158080221581400117010000442947883A18C7883A10C7883A1CC000151C
:200CA8002148983A11404017290AB03A114040151C80201500C00084A8C0031E10C04117C0
:200CB0001908B03A110041158080011710C00044108000841085883A1085883A80C001156E
:200CB80080A1883A844000150005883ADFC00617DD400517DD000417DCC00317DC80021781
:200CC000DC400117DC000017DEC00704F800283ADEFFF504DD00051505040034DC8003156C
:200CC800DFC00A15DF000915DDC00815DD800715DD400615DCC00415DC400215DC0001150C
:200CD000D90000152825883AA5172F04A44000178CC00C178C400C04980045269C0001171B
:200CD8000090003410BFFFC49D40221785BFFFC480A1883A8421883A8421883AAC2F883A3B
:200CE000840002049C21883AB000271690000726A800041EB5BFFFC4BDFFFF04843FFF04BB
:200CE800003FF906B9002017913FFA1E9900011782000017213FFFC4B100021E9D80011565
:200CF0000000010680000015403FF2269F000117A8000526008000441592983AA9404017AA
:200CF800494A703A2800021E403EE83A00000906A90041174908703A2000041EB94000175A
:200D0000D9000017403EE83A00000206B9000017403EE83A99000117E13FCC1E8900001770
:200D0800993FDC26003FC906008000341080000410000F2699400117990000172800091E66
:200D10002000082689000015A8000226A809883A000000009809883A000000008CC00017CE
:200D1800003FBD069823883A2027883A003FBA06DFC00A17DF000917DDC00817DD8007173E
:200D2000DD400617DD000517DCC00417DC800317DC400217DC000117DEC00B04F800283A23
:200D280020000226002AF07000000106002AF0B0003FFF0610001184735F697375746174B3
:200D3000203D207330257830000A58326973202049203A315F52544E75253D4E4C4F4C20B3
:200D3800253D4E5F494D2075253D4F5300000A756973202049203A325F52544E75253D4E75
:200D40004C4F4C20253D4E5F494D2075253D4F5300000A757665642F61746A2F61755F6757
:200D4800000074724F52524563203A5274276E6165706F207325206E0000000A69727241D2
:200D5000005620615F544C4149564544465F45434C494D41203D2059277325270000000A2E
:200D58005D64775B696E6920000000745D64775B52524520203A524F5F746C6172616C613D
:200D600074735F6D2074726125203E3D00000A642E69735B746961776165725F205D796420
:200D68004E5241574544203A454349564145525F212059447830203D000046302E69735B34
:200D70005F746573656761706170205D3C2065677830203D583230250000000A2E69735B52
:200D7800646165726973205D2578305B5D58343030203D203230257800000A585D73255BC7
:200D80005F4E5020455341422578303D205834304441524775253D45564552202075253DF7
:200D880052544E49253D4E5F4F4C20753D4E5F4C000A75252E69735B7469727773205D6575
:200D900078305B69583430253D3C205D257830200A5832300000000074617473003A737571
:200D980059532020434E49533D204C410A642520000000004F4C20204F4F2F5346282046B6
:200DA0002029474C6425203D2064252F2F6425280A296425000000004F4C20204F482F4C10
:200DA8002820444C29474C4625203D2064252F64642528202964252F0000000A2E69735B72
:200DB00074696E696F64205D0000656E3569735B2E78343374696E695953205D434E4953C9
:200DB8003D204C412075252077203E3D207469610A2E2E2E0000000061766E492064696C6C
:200DC0006573616272617020756E20747265626D7830203A583430250000000A33356973C7
:200DC800003A3534495B20203E3D205D696E692000000074525B20203E3D205D7365722069
:200DD00000007465725B20203E3D205D616572206572206400007367656C655365207463B3
:200DD8007972746E2E2E2E2000000000656C657370207463206567613A293028000000204C
:200DE00033356973722E35343A64616500000000305B2020343025783D205D582578302077
:200DE8000A5832300000000061766E692064696C6D6D6F633A646E616325272000000A2707
:200DF000204245466E69726270752D676F694E2000000073595320202044495320202020AD
:200DF8002020202030203A203830257800000A584953202054554F5F5341425F202020453D
:200E000030203A203830257800000A58495320205F4E495F455341422020202030203A204B
:200E08003830257800000A5842442020442F3047203147422020202030203A2038302578AA
:200E1000202F205830257830000A583800316973003269736972625B7075676E2D2D205D20
:200E18002D2D2D2D6D202D2D20756E652D2D2D2D2D2D2D2D00000000625B20203E3D205D5A
:200E2000696E69206F622074532068746863206900737069315B20203E3D205D726F6620D3
:200E2800692065632074696E333549532320353400000031325B20203E3D205D726F6620E1
:200E3000692065632074696E333549532320353400000032725B20203E3D205D6C7570208E
:200E3800622065732068746F65736572697020740000736E735B20203E3D205D6D7564206C
:200E400061722070747320777375746100000000355B20203E3D205D35495320203534337F
:200E48006D20312300756E65365B20203E3D205D35495320203534336D20322300756E65C1
:200E5000353469730031762E00C00B2400000B2500010540012CFFFF0000000600000007CB
:200E5800000000080068000B0002001600DC001700BB001800DD001900DF001A0002002B05
:200E60000004002C0010002D0000002E0000002F00000030000000310039003200000033A9
:200E68000000003400000035000000360000003700000038000000390039003A0000003B75
:200E70000000003C0000003D0044003F000400400000004100000042000D0043000000440B
:200E7800000C0045000000460000004700320048000000490000004A0000004B0032004CA6
:200E80000000004D0000004E0005004F000F005000000051000000520003005300000054B7
:200E880000000055000000560003005700000058001000590000005A0000005B0000005C73
:200E90000000005D0000005E0000005F0000006000000061000000620000006300400064FE
:200E980000010065000000660000006700000068000000690002009200A0009300000095DA
:200EA00000800096006000980002009A0060009B0008009D0040009E002000A0000000A2A8
:200EA800008300A9006100AA000000AB000000AC000000E5000A00EA006000EB000000EC8C
:200EB000000000ED000101020002010800090109003B010A0028010B0002010D0009010E71
:200EB800003B010F002801100006011200090113003B011400290115000201170009011895
:200EC000003B01190028011A0002011C0009011D003B011E0028011F000201210009012242
:200EC800003B0123002801240002012600090127003B0128002801290002012B0009012CEA
:200ED000003B012D0028012E0002013000090131003B0132002801330001013A0009013B89
:200ED800003B013C0028013D0000013F000001400040014100FF01420000020600000208C5
:200EE000000002090000020A0000020B0000020C0000020D0000020E0000020F000002107E
:200EE800000002110000021200000213000002140000021500000216000002170000021836
:200EF000000002190000021A0000021B0041021C0000021D0000021E0000021F00000220AD
:200EF8000000022100010222000002230000022400000225000002260000022700000228A5
:200F0000000002290000022A0000022B0000022C0000022D0000022E0000022F000B023151
:200F0800000B0232000B0233000B0234000002350000023600000237000002380087023965
:200F10000000023A0000023B0000023C0000023D0080023E0001024A0000024B0000024C23
:200F18000001024D0000024E0000024F000002500000025100000252000102530000025423
:200F200000000255000402560000025700000258000102590000025A0000025B0004025CD4
:200F28000000025D0000025E0004025F000002600000026100010262000002630000026490
:200F300000000268000002690000026A0000026B0000026C0000026D0000026E0000026F35
:200F38000000027000000271000002720000028A0000028B0000028C0000028D0000028E7A
:200F40000000028F000002900000029100B0029400020296000202970002029900FA029D2A
:200F48000001029E0000029F00CC02A9000402AA000002AB00FF02B70000030200000303B0
:200F50000000030400800305000D03060000030700000308000003090000030A0080030B20
:200F58000000030C0000030D0000030E0000030F00000310001B03110000031200000313CA
:200F6000000003140000031500A003160000031700000318000003190000031A0000031BFD
:200F68000000031C0000031D0000031E0000031F0000032000000321000003220000032355
:200F70000000032400000325000003260000032700000328000003290000032A0000032B0D
:200F78000000032C0000032D0000032E0000032F00000330000003310000033200000333C5
:200F80000000033400000335000003360000033700000338001F03390000033B0000033C5C
:200F88000000033D0000033E0000033F00000340000003410000034200000343000003442D
:200F900000000345000003460000034700000348000003490000034A0000034B0000034CE5
:200F98000000034D0000034E0000034F00000350000003510000035200000353000003549D
:200FA00000000355000003560000035700000358000003590000035A0000035B0000035C55
:200FA8000000035D0000035E0000035F00000360000003610000036200000487001305082F
:200FB00000220509000C050A000B050B0007050C003F050D0016050E002A050F00090510CD
:200FB8000008051100070512003F05130000051500000516000005170000051800BE05193C
:200FC0000002051A0000051B0000051C0000051D0000051E0080051F002B05210005052A41
:200FC8000001052B0087052C0003052D0019052E0019052F00000531006305320003053347
:200FD0000000053400000535000405360000053700000538000005390002053A0003053B14
:200FD8000000053C0011053D0006053E000D05890000058A00F8059B0013059D0024059EDE
:200FE000000C059F000B05A0000705A1003F05A2000305A6003508020005080300000804F5
:200FE80000000805000008060000080700000808000008090000080A0000080B0000080C65
:200FF0000000080D0000080E0000080F00000810000008110000081200000813000008141D
:200FF80000000815000008160000081700000818000008190000081A0000081B0000081CD5
:201000000000081D0000081E0000081F00000820000008210000082200000823000008248C
:2010080000000825000008260000082700000828000008290000082A0000082B0000082C44
:201010000000082D0000082E0000082F0000083000000831000008320000083300000834FC
:2010180000000835000008360000083700000838000008390000083A0000083B0000083CB4
:201020000000083D0000083E0000083F00000840000008410000084200000843000008446C
:2010280000000845000008460000084700000848000008490000084A0000084B0000084C24
:201030000000084D0000084E0000084F0000085000000851000008520000085300000854DC
:2010380000000855000008560000085700000858000008590000085A0000085B0000085C94
:201040000000085D0000085E0000085F00000860000008610002090E0000094300040949D2
:201048000004094A0049094E0002094F0000095E00000A0200030A0300010A0400030A0593
:2010500000000A1400000A1A00000A2000000A2600000A2C002F0B4400000B46000B0B4782
:20105800000B0B48001C0B4A00030B5700010B58000105140001001C0000054000C30B2472
:2010600000020B2500C00B2400000B2500010540012CFFFF00000006000000070000000899
:201068000068000B0002001600DC001700EE001800DD001900DF001A0002002B0001002C9B
:201070000001002D0038002E0000002F0000003000000031000000320000003300000034A3
:2010780000000035003800360000003700000038000000390000003A0000003B0000003C5C
:201080000000003D0011003F00040040000D0041000000420000004300000044000C004517
:20108800003200460000004700000048000000490032004A0000004B0000004C0000004D98
:201090000005004E0000004F000F005000030051000000520000005300000054000300559A
:20109800000000560000005700000058000100590000005A0000005B0040005C0001005D2A
:2010A0000000005E0000005F00000060000000610000006200000063000000640000006524
:2010A800000000660000006700000068000000690002009200A00093000000950080009618
:2010B000006000980002009A0060009B0008009D0040009E002000A0000000A2008500A97E
:2010B800006100AA000000AB000000AC000000E5000A00EA006000EB000000EC000000EDB9
:2010C000000101020006010800090109003B010A0028010B0006010D0009010E003B010FF9
:2010C800002801100006011200090113003B0114002801150006011700090118003B011976
:2010D0000028011A0002011C0009011D003B011E0028011F0006012100090122003B012322
:2010D800002801240002012600090127003B0128002801290002012B0009012C003B012DCE
:2010E0000028012E0002013000090131003B0132002801330001013A0009013B003B013C68
:2010E8000028013D0000013F000001400040014100FF014200000206003F020800000209E1
:2010F0000000020A0000020B0000020C0000020D0001020E0000020F000002100000021163
:2010F80000000212000002130000021400000215000002160000021700000218000002191C
:201100000000021A0000021B0000021C0000021D0000021E0000021F0000022000000221D3
:2011080000000222000002230000022400000225000002260000022700000228000002298B
:201110000000022A0000022B0000022C0000022D0000022E0000022F000B0231000B02322B
:20111800000B0233000B023400000235000002360000023700800238008902390000023AD4
:201120000000023B0000023C0000023D0080023E0000024A0000024B0000024C0000024DFF
:201128000000024E0000024F0000025000000251000002520000025300000254000002550B
:20113000000402560000025700000258000002590000025A0000025B0004025C0000025DBB
:201138000000025E0004025F00000260000002610004026200000263000002640000026870
:20114000000002690000026A0000026B0000026C0000026D0000026E0000026F000002701B
:2011480000000271000002720000028A0000028B0000028C0000028D0000028E0000028F49
:20115000000002900000029100B0029400020296000202970002029900FA029D0001029E08
:201158000000029F00CC02A9000402AA000002AB00FF02B700000302000003030000030438
:2011600000800305000503060000030700000308000003090000030A0080030B0000030C0E
:201168000000030D0000030E0000030F0000031000000311000003120000031300000314CB
:2011700000000315000003160000031700000318000003190000031A0000031B0000031C83
:201178000000031D0000031E0000031F00000320000003210000032200000323000003243B
:2011800000000325000003260000032700000328000003290000032A0000032B0000032CF3
:201188000000032D0000032E0000032F0000033000000331000003320000033300000334AB
:2011900000000335000003360000033700000338001F03390000033B0000033C0000033D41
:201198000000033E0000033F00000340000003410000034200000343000003440000034513
:2011A000000003460000034700000348000003490000034A0000034B0000034C0000034DCB
:2011A8000000034E0000034F00000350000003510000035200000353000003540000035583
:2011B000000003560000035700000358000003590000035A0000035B0000035C0000035D3B
:2011B8000000035E0000035F0000036000000361000003620000048700130508002205094D
:2011C000000C050A000B050B0007050C003F050D0016050E002A050F0009051000080511CD
:2011C80000070512003F05130000051500000516000005170000051800B505190002051A30
:2011D0000000051B0000051C0000051D0000051E0080051F002B05210001052A0001052B23
:2011D8000087052C0003052D0019052E0019052F0000053100480532000305330000053448
:2011E00000000535000405360000053700000538000005390002053A0003053B0000053CFA
:2011E8000011053D0006053E000D05890000058A00F8059B0013059D0024059E000C059F5D
:2011F000000B05A0000705A1003F05A2000305A60035080200050803000008040000080586
:2011F800000008060000080700000808000008090000080A0000080B0000080C0000080D4B
:201200000000080E0000080F00000810000008110000081200000813000008140000081502
:20120800000008160000081700000818000008190000081A0000081B0000081C0000081DBA
:201210000000081E0000081F00000820000008210000082200000823000008240000082572
:20121800000008260000082700000828000008290000082A0000082B0000082C0000082D2A
:201220000000082E0000082F000008300000083100000832000008330000083400000835E2
:20122800000008360000083700000838000008390000083A0000083B0000083C0000083D9A
:201230000000083E0000083F00000840000008410000084200000843000008440000084552
:20123800000008460000084700000848000008490000084A0000084B0000084C0000084D0A
:201240000000084E0000084F000008500000085100000852000008530000085400000855C2
:20124800000008560000085700000858000008590000085A0000085B0000085C0000085D7A
:201250000000085E0000085F00000860000008610002090E00000943000109490001094AD4
:201258000049094E0002094F0000095E00000A0200010A0300010A0400010A0500000A14BE
:2012600000000A1A00000A2000000A2600000A2C002F0B4400000B46000E0B47000E0B482A
:20126800001E0B4A00030B5700010B58000105140001001C0000054000C30B2400020B258A
:201270007665642F6C756E2F0000006C000000000000000000000000000000000000000006
:20127800000000000000000000000000000000000000000000000000000000000000000056
:2012800000000000000000000000000000000000000000000000000000000000000000004E
:20128800000000000000000000000000000000000000000000000000000000000000000046
:2012900000000000000000000000000000000000000000000000000000000000000000003E
:2017380000000000000000000000000010004A8C10004A9410004A9C0000000000000000C7
:20174000000000000000000000000000000000000000000000000000000000000000000089
:20174800000000000000000000000000000000000000000000000000000000000000000081
:20175000000000000000000000000000000000000000000000000000000000000000000079
:20175800000000000000000000000000000000000000000000000000000000000000000071
:20176000000000000000000000000000000000000000000000000000000000000000000069
:20176800000000000000000000000004000000000001000A000000000002000A0000000046
:2017700000000000000000000000000000000000100035140000000010002544100025242E
:2017780010002534000000000000000010002554700F00100000000A0000000000000000C6
:20178000000000000000000000000000000000000000000000000000000000000000000049
:20178800000000000000000000000000000000000000000000000000000000000000000041
:20179000000000000000000000000000000000000000000000000000000000000000000039
:20179800000000000000000000000000000000000000000000000000000000000000000031
:201B8800000000000000000010005C8C000000000000000010005C8C00000000000000004D
:201B900010005C8C000000000000000000000000000000000000000000000000000000003D
:201B980000000000000000000000000000000000000000000000000000000000000000002D
:201BA000000000000000000000000000000000000000000000000000000000000000000025
:201BA80000000000000000000000000000000000000000000000000000000000000000001D
:201BB000000000000000000000000000000000000000000000000000000000000000000015
:201BB80000000000000000000000000000000000000000000000000000000000000000000D
:201BC000000000000000000000000000000000000000000000000000000000000000000005
:201BC8000000000000000000000000000000000000000000000000000000000000000000FD
:201BD0000000000000000000000000000000000000000000000000000000000000000000F5
:201BD8000000000000000000000000000000000000000000000000000000000000000000ED
:201BE0000000000000000000000000000000000000000000000000000000000000000000E5
:201BE800000000000000000010005CD010005CD0100049C00000000000000000000000004C
:201BF00010002C1C0000000000000000000000000000003CFFFFFFFF100049CC100049CCFB
:201BF80010005CC410005CC4FFFFFFFF10005C8C10005C8C10005CD810005CD800000000F9
:201C0000FFFFFFFF00000000000000000000000000000000000000000000000000000000C8
:201C08000000000000000000000000000000000000000000000000000000000000000000BC
:201C10000000000000000000000000000000000000000000000000000000000000000000B4
:201C18000000000000000000000000000000000000000000000000000000000000000000AC
:201C20000000000000000000000000000000000000000000000000000000000000000000A4
:00000001FF
